{
  "contractName": "funds",
  "abi": [
    {
      "constant": false,
      "inputs": [
        {
          "name": "o",
          "type": "bytes32"
        },
        {
          "name": "a",
          "type": "uint256"
        }
      ],
      "name": "addData",
      "outputs": [],
      "payable": false,
      "stateMutability": "nonpayable",
      "type": "function"
    },
    {
      "constant": false,
      "inputs": [],
      "name": "getName",
      "outputs": [
        {
          "name": "",
          "type": "bytes32"
        }
      ],
      "payable": false,
      "stateMutability": "nonpayable",
      "type": "function"
    },
    {
      "constant": false,
      "inputs": [],
      "name": "getAmount",
      "outputs": [
        {
          "name": "",
          "type": "uint256"
        }
      ],
      "payable": false,
      "stateMutability": "nonpayable",
      "type": "function"
    }
  ],
  "bytecode": "0x6060604052341561000f57600080fd5b61013b8061001e6000396000f300606060405260043610610057576000357c0100000000000000000000000000000000000000000000000000000000900463ffffffff16806317d7de7c1461005c578063c0974e211461008d578063d321fe29146100bd575b600080fd5b341561006757600080fd5b61006f6100e6565b60405180826000191660001916815260200191505060405180910390f35b341561009857600080fd5b6100bb6004808035600019169060200190919080359060200190919050506100ef565b005b34156100c857600080fd5b6100d0610105565b6040518082815260200191505060405180910390f35b60008054905090565b8160008160001916905550806001819055505050565b60006001549050905600a165627a7a72305820ce9a1efa2067cd4755b260ab3f11fd53490b6623f282d111f47af2ccccd0e3120029",
  "source": "pragma solidity ^0.4.17;\r\n\r\n    contract funds{\r\n       bytes32 org_name;\r\n       uint amount;\r\n        function addData(bytes32 o,uint a)\r\n        {\r\n                org_name =  o;\r\n                amount = a;\r\n        }\r\n        function getName() returns(bytes32){\r\n            return org_name;\r\n        }\r\n        function getAmount() returns(uint){\r\n                return amount;\r\n        }\r\n    }\r\n",
  "sourcePath": "C:\\Users\\Santosh\\Desktop\\funds\\contracts\\funds.sol",
  "compiler": {
    "name": "solc",
    "version": "0.4.19+commit.c4cbbb05.Emscripten.clang"
  },
  "schemaVersion": "1.0.1",
  "updatedAt": "2018-02-22T09:57:18.260Z"
}